:020000040800F2
:1000000000000220255B0008FD5800080B5900087D
:1000100011590008175900081D5900080000000078
:10002000000000000000000000000000235900084C
:1000300031590008000000003F5900084D590008E0
:10004000755B0008755B0008755B0008755B000850
:10005000755B0008755B0008755B0008755B000840
:10006000755B0008755B0008755B0008755B000830
:10007000755B0008755B0008755B0008755B000820
:10008000755B0008755B0008755B0008755B000810
:10009000755B0008755B0008755B0008755B000800
:1000A000755B0008755B0008755B0008755B0008F0
:1000B000755B0008755B0008755B0008755B0008E0
:1000C000755B0008755B0008755B0008755B0008D0
:1000D000755B0008755B000859590008755B0008DE
:1000E000755B0008755B0008755B0008755B0008B0
:1000F000755B0008755B0008755B0008755B0008A0
:10010000755B0008755B0008755B0008755B00088F
:10011000755B0008755B0008755B0008755B00087F
:10012000755B0008755B0008755B0008755B00086F
:10013000755B00080000000000000000755B00080F
:10014000755B0008755B0008755B0008755B00084F
:10015000755B0008755B0008755B0008755B00083F
:10016000755B0008755B0008755B0008755B00082F
:10017000755B0008755B0008755B000800000000F7
:1001800000000000755B0008000000000000000097
:10019000755B00080000000000000000755B0008AF
:1001A000000000000000000000000000755B000877
:1001B000755B0008755B0008755B0008755B0008DF
:0401C000755B000863
:1001D00010B5054C237833B9044B13B10448AFF381
:1001E00000800123237010BDE0010020000000000A
:1001F000E083000808B5034B1BB103490348AFF384
:10020000008008BD00000000E4010020E083000839
:1002100081F0004102E000BF83F0004330B54FEAB7
:1002200041044FEA430594EA050F08BF90EA020F24
:100230001FBF54EA000C55EA020C7FEA645C7FEAB7
:10024000655C00F0E2804FEA5454D4EB5555B8BFDA
:100250006D420CDD2C4480EA020281EA030382EA4B
:10026000000083EA010180EA020281EA0303362DDD
:1002700088BF30BD11F0004F4FEA01314FF4801CB0
:100280004CEA113102D0404261EB410113F0004FC2
:100290004FEA03334CEA133302D0524263EB430379
:1002A00094EA050F00F0A780A4F10104D5F1200E17
:1002B0000DDB02FA0EFC22FA05F2801841F1000172
:1002C00003FA0EF2801843FA05F359410EE0A5F146
:1002D00020050EF1200E012A03FA0EFC28BF4CF077
:1002E000020C43FA05F3C01851EBE37101F000452D
:1002F00007D54FF0000EDCF1000C7EEB00006EEB3A
:100300000101B1F5801F1BD3B1F5001F0CD34908C3
:100310005FEA30004FEA3C0C04F101044FEA44521A
:1003200012F5800F80F09A80BCF1004F08BF5FEAA1
:10033000500C50F1000041EB045141EA050130BD81
:100340005FEA4C0C404141EB010111F4801FA4F124
:100350000104E9D191F0000F04BF01460020B1FA79
:1003600081F308BF2033A3F10B03B3F120020CDAB1
:100370000C3208DD02F1140CC2F10C0201FA0CF08F
:1003800021FA02F10CE002F11402D8BFC2F1200CF4
:1003900001FA02F120FA0CFCDCBF41EA0C019040AA
:1003A000E41AA2BF01EB0451294330BD6FEA0404F3
:1003B0001F3C1CDA0C340EDC04F11404C4F12002DE
:1003C00020FA04F001FA02F340EA030021FA04F3F0
:1003D00045EA030130BDC4F10C04C4F1200220FA47
:1003E00002F001FA04F340EA0300294630BD21FA85
:1003F00004F0294630BD94F0000F83F4801306BF4B
:1004000081F480110134013D4EE77FEA645C18BF3E
:100410007FEA655C29D094EA050F08BF90EA020FD5
:1004200005D054EA000C04BF1946104630BD91EACD
:10043000030F1EBF0021002030BD5FEA545C05D1D0
:100440004000494128BF41F0004130BD14F580040F
:100450003CBF01F5801130BD01F0004545F0FE4183
:1004600041F470014FF0000030BD7FEA645C1ABFB8
:10047000194610467FEA655C1CBF0B46024650EAEF
:10048000013406BF52EA033591EA030F41F400211B
:1004900030BD00BF90F0000F04BF0021704730B5A1
:1004A0004FF4806404F132044FF000054FF0000176
:1004B00050E700BF90F0000F04BF0021704730B537
:1004C0004FF4806404F1320410F0004548BF40420C
:1004D0004FF000013EE700BF42004FEAE2014FEA61
:1004E00031014FEA02701FBF12F07F4393F07F4F3C
:1004F00081F06051704732F07F4208BF704793F03F
:100500007F4F04BF41F40021704730B54FF4607451
:1005100001F0004521F000411CE700BF50EA010254
:1005200008BF704730B54FF000050AE050EA0102FD
:1005300008BF704730B511F0004502D5404261EB6D
:1005400041014FF4806404F132045FEA915C3FF4AE
:10055000D8AE4FF003025FEADC0C18BF03325FEA4B
:10056000DC0C18BF033202EBDC02C2F1200300FAFC
:1005700003FC20FA02F001FA03FE40EA0E0021FA21
:1005800002F11444BDE600BF70B54FF0FF0C4CF40F
:10059000E06C1CEA11541DBF1CEA135594EA0C0FC1
:1005A00095EA0C0F00F0DEF82C4481EA030621EAFC
:1005B0004C5123EA4C5350EA013518BF52EA033537
:1005C00041F4801143F4801338D0A0FB02CE4FF0E9
:1005D0000005E1FB02E506F00042E0FB03E54FF019
:1005E0000006E1FB03569CF0000F18BF4EF0010E11
:1005F000A4F1FF04B6F5007F64F5407404D25FEA0D
:100600004E0E6D4146EB060642EAC62141EA5551BF
:100610004FEAC52040EA5E504FEACE2EB4F1FD0C01
:1006200088BFBCF5E06F1ED8BEF1004F08BF5FEA7F
:10063000500E50F1000041EB045170BD06F0004631
:1006400046EA010140EA020081EA0301B4EB5C04DE
:10065000C2BFD4EB0C0541EA045170BD41F48011D6
:100660004FF0000E013C00F3AB8014F1360FDEBFFB
:10067000002001F0004170BDC4F10004203C35DAD7
:100680000C341BDC04F11404C4F1200500FA05F35A
:1006900020FA04F001FA05F240EA020001F00042FB
:1006A00021F0004110EBD37021FA04F642EB060171
:1006B0005EEA430E08BF20EAD37070BDC4F10C049B
:1006C000C4F1200500FA04F320FA05F001FA04F25F
:1006D00040EA020001F0004110EBD37041F100014B
:1006E0005EEA430E08BF20EAD37070BDC4F1200556
:1006F00000FA05F24EEA020E20FA04F301FA05F2BE
:1007000043EA020321FA04F001F0004121FA04F265
:1007100020EA020000EBD3705EEA430E08BF20EA35
:10072000D37070BD94F0000F0FD101F0004640006F
:1007300041EB010111F4801F08BF013CF7D041EAF1
:10074000060195F0000F18BF704703F000465200F5
:1007500043EB030313F4801F08BF013DF7D043EAC6
:100760000603704794EA0C0F0CEA135518BF95EA7C
:100770000C0F0CD050EA410618BF52EA4306D1D103
:1007800081EA030101F000414FF0000070BD50EA22
:10079000410606BF1046194652EA430619D094EAAC
:1007A0000C0F02D150EA013613D195EA0C0F05D196
:1007B00052EA03361CBF104619460AD181EA0301EA
:1007C00001F0004141F0FE4141F470014FF00000A2
:1007D00070BD41F0FE4141F4780170BD70B54FF03D
:1007E000FF0C4CF4E06C1CEA11541DBF1CEA1355BD
:1007F00094EA0C0F95EA0C0F00F0A7F8A4EB05049F
:1008000081EA030E52EA03354FEA013100F0888095
:100810004FEA03334FF0805545EA131343EA12635E
:100820004FEA022245EA111545EA10654FEA002613
:100830000EF000419D4208BF964244F1FD0404F5CC
:10084000407402D25B084FEA3202B61A65EB030528
:100850005B084FEA32024FF480104FF4002CB6EBE5
:10086000020E75EB030E22BFB61A754640EA0C0065
:100870005B084FEA3202B6EB020E75EB030E22BFA5
:10088000B61A754640EA5C005B084FEA3202B6EBE6
:10089000020E75EB030E22BFB61A754640EA9C00A5
:1008A0005B084FEA3202B6EB020E75EB030E22BF75
:1008B000B61A754640EADC0055EA060E18D04FEA33
:1008C000051545EA16754FEA06164FEAC30343EAD3
:1008D00052734FEAC2025FEA1C1CC0D111F4801FA0
:1008E0000BD141EA00014FF000004FF0004CB6E799
:1008F00011F4801F04BF01430020B4F1FD0C88BF38
:10090000BCF5E06F3FF6AFAEB5EB030C04BFB6EB42
:10091000020C5FEA500C50F1000041EB045170BD35
:100920000EF0004E4EEA113114EB5C04C2BFD4EB62
:100930000C0541EA045170BD41F480114FF0000EE6
:10094000013C90E645EA060E8DE60CEA135594EA62
:100950000C0F08BF95EA0C0F3FF43BAF94EA0C0F65
:100960000AD150EA01347FF434AF95EA0C0F7FF4DA
:1009700025AF104619462CE795EA0C0F06D152EA2E
:1009800003353FF4FDAE1046194622E750EA410612
:1009900018BF52EA43067FF4C5AE50EA41047FF423
:1009A0000DAF52EA43057FF4EBAE12E74FF0FF3C88
:1009B00006E000BF4FF0010C02E000BF4FF0010C59
:1009C0004DF804CD4FEA410C7FEA6C5C4FEA430CD2
:1009D00018BF7FEA6C5C1BD001B050EA410C0CBF21
:1009E00052EA430C91EA030F02BF90EA020F002083
:1009F000704710F1000F91EA030F58BF994208BFEA
:100A000090422CBFD8176FEAE37040F001007047A6
:100A10004FEA410C7FEA6C5C02D150EA013C07D1FD
:100A20004FEA430C7FEA6C5CD6D152EA033CD3D048
:100A30005DF8040B704700BF8446104662468C4642
:100A40001946634600E000BF01B5FFF7B7FF002875
:100A500048BF10F1000F01BD4DF808EDFFF7F4FF9E
:100A60000CBF012000205DF808FB00BF4DF808ED29
:100A7000FFF7EAFF34BF012000205DF808FB00BF4C
:100A80004DF808EDFFF7E0FF94BF012000205DF86E
:100A900008FB00BF4DF808EDFFF7CEFF94BF012023
:100AA00000205DF808FB00BF4DF808EDFFF7C4FF1C
:100AB00034BF012000205DF808FB00BF4FEA410C65
:100AC0007FEA6C5C02D150EA013C0AD14FEA430C48
:100AD0007FEA6C5C02D152EA033C02D14FF0000085
:100AE00070474FF0010070474FEA4102B2F1E04316
:100AF00024BFB3F5001CDCF1FE5C0DD901F0004C05
:100B00004FEAC0024CEA5070B2F1004F40EB830054
:100B100008BF20F00100704711F0804F21D113F180
:100B20003872BCBF01F00040704741F480114FEAB9
:100B30005252C2F11802C2F1200C10FA0CF320FA42
:100B400002F018BF40F001004FEAC1234FEAD3235F
:100B500003FA0CFC40EA0C0023FA02F34FEA4303C9
:100B6000CCE77FEA625307D150EA01331EBF4FF052
:100B7000FE4040F44000704701F0004040F0FE406D
:100B800040F40000704700BF53B94AB9002908BFBC
:100B900000281CBF4FF0FF314FF0FF3000F072B95A
:100BA000ADF1080C6DE904CE00F006F8DDF804E0C4
:100BB000DDE9022304B070472DE9F047089E0446A2
:100BC0008846002B4BD18A42154667D9B2FA82F289
:100BD0004AB1C2F1200701FA02F320FA07F7954063
:100BE00047EA030894404FEA154E230CB8FBFEF782
:100BF0001FFA85FC0EFB178843EA084307FB0CF13C
:100C0000994209D9EB1807F1FF3080F01B81994216
:100C100040F21881023F2B445B1AA4B2B3FBFEF0F2
:100C20000EFB103344EA034400FB0CFCA44509D935
:100C30002C1900F1FF3380F00781A44540F20481B4
:100C400002382C4440EA0740A4EB0C0400271EB1F4
:100C5000D4400023C6E900433946BDE8F0878B4203
:100C600009D9002E00F0EB800027C6E900013846C4
:100C70003946BDE8F087B3FA83F7002F47D18B429E
:100C800002D3824200F2FA80841A61EB030301204E
:100C90009846002EE0D0C6E90048DDE702B9FFDE45
:100CA000B2FA82F2002A40F08F80491B4FEA154EBB
:100CB0001FFA85F80127B1FBFEFC230C0EFB1C116B
:100CC00043EA014308FB0CF1994207D9EB180CF1F8
:100CD000FF3002D2994200F2CD808446591AA3B265
:100CE000B1FBFEF00EFB101443EA044408FB00F8CD
:100CF000A04507D92C1900F1FF3302D2A04500F21C
:100D0000B6801846A4EB080440EA0C409FE7C7F100
:100D1000200CBB4022FA0CFE4EEA030E01FA07F447
:100D200020FA0CF521FA0CF34FEA1E482543B3FBD9
:100D3000F8F92C0C08FB19331FFA8EFA44EA034326
:100D400009FB0AF49C4202FA07F200FA07F10BD9F8
:100D50001EEB030309F1FF3080F087809C4240F2D4
:100D60008480A9F1020973441B1BADB2B3FBF8F0F8
:100D700008FB103345EA034400FB0AFAA24508D9F0
:100D80001EEB040400F1FF336BD2A24569D902388F
:100D9000744440EA0940A0FB0289A4EB0A044C45D4
:100DA000C2464B4654D351D0002E69D0B1EB0A0550
:100DB00064EB030404FA0CFCFD40FC404CEA05051E
:100DC000C6E90054002747E7C2F1200320FA03F7E1
:100DD000954001FA02F021FA03F34FEA154E384329
:100DE000010CB3FBFEF71FFA85F80EFB173341EA3F
:100DF000034107FB08F38B4204FA02F407D9691890
:100E000007F1FF3C2FD28B422DD9023F2944CB1A48
:100E100081B2B3FBFEF00EFB103341EA034100FB4D
:100E200008F38B4207D9691800F1FF3C17D28B42B7
:100E300015D902382944C91A40EA07473BE7374623
:100E4000304609E70746E7E61846FBE64145ABD2E0
:100E5000B8EB020A69EB0E0201381346A4E76046BC
:100E6000E9E7184695E76746D1E781467CE702380F
:100E70002C4447E7ACF1020C2B442FE7384608E737
:100E80003746E9E6704700BF034613F8012B002AF6
:100E9000FBD1181A01387047000000000000000064
:100EA00001F0FF01102A2BDB10F0070F08D010F81B
:100EB000013B013A8B422DD010F0070F42B3F6D11F
:100EC000F0B441EA012141EA014122F007047FF038
:100ED00000070023F0E80256083C85EA010586EA8F
:100EE000010685FA47F5A3FA87F586FA47F6A5FACB
:100EF00087F68EB9EED1F0BC01F0FF0102F00702D7
:100F000032B110F8013B013A83EA010313B1F8D181
:100F10000020704701387047002D06BF3546033862
:100F2000073815F0010F07D1013015F4807F02BF9B
:100F3000013015F4C03F0130F0BC0138704700BFEC
:100F40004FEA410212F5001215D211D56FF47873F1
:100F5000B3EB625212D94FEAC12343F0004343EA94
:100F6000505311F0004F23FA02F018BF404270476F
:100F70004FF00000704750EA013005D111F00040F9
:100F800008BF6FF0004070474FF00000704700BF8F
:100F900080B500AF0E4B1B680D4A43F4007313601D
:100FA0000B4B1B680A4A43F480631360084B1B68B1
:100FB000074A43F480731360032000F04DF90020CA
:100FC00000F008F804F072FC0023184680BD00BF52
:100FD000003C024080B582B000AF7860124B1A68C6
:100FE000124B1B7819464FF47A73B3FBF1F3B2FB43
:100FF000F3F3184600F065F90346002B01D00123F6
:101000000EE07B680F2B0AD8002279684FF0FF3082
:1010100000F02DF9064A7B681360002300E00123ED
:1010200018460837BD4680BD080000200400002097
:101030000000002080B400AF064B1B781A46064B18
:101040001B681344044A136000BFBD465DF8047B6F
:10105000704700BF040000202C02002080B400AFC5
:10106000034B1B681846BD465DF8047B704700BF04
:101070002C02002080B584B000AF7860FFF7EEFF4F
:10108000B8607B68FB60FB68B3F1FF3F05D0094B9C
:101090001B781A46FB681344FB6000BFFFF7DEFFB6
:1010A0000246BB68D31AFA689A42F7D800BF1037D5
:1010B000BD4680BD0400002080B485B000AF7860DC
:1010C0007B6803F00703FB600C4BDB68BB60BA680E
:1010D0004FF6FF031340BB60FB681A02BB68134363
:1010E00043F0BF6343F40033BB60044ABB68D36082
:1010F00000BF1437BD465DF8047B704700ED00E08B
:1011000080B400AF044BDB681B0A03F007031846EA
:10111000BD465DF8047B704700ED00E080B483B00D
:1011200000AF0346FB7197F90730002B0BDBFB790F
:1011300003F01F02074997F907305B09012000FA05
:1011400002F241F8232000BF0C37BD465DF8047B56
:10115000704700BF00E100E080B483B000AF0346F9
:101160003960FB7197F90730002B0ADB3B68DAB274
:101170000C4997F907301201D2B20B4483F80023CF
:101180000AE03B68DAB20849FB7903F00F03043B3D
:101190001201D2B20B441A7600BF0C37BD465DF87F
:1011A000047B704700E100E000ED00E080B489B00E
:1011B00000AFF860B9607A60FB6803F00703FB6179
:1011C000FB69C3F10703042B28BF0423BB61FB6940
:1011D0000433062B02D9FB69033B00E000237B614B
:1011E0004FF0FF32BB6902FA03F3DA43BB681A40DF
:1011F0007B699A404FF0FF317B6901FA03F3D943D1
:101200007B680B40134318462437BD465DF8047BCA
:101210007047000080B582B000AF78607B68013B0A
:10122000B3F1807F01D301230FE00A4A7B68013BC1
:1012300053600F214FF0FF30FFF78EFF054B002268
:101240009A60044B07221A60002318460837BD46EF
:1012500080BD00BF10E000E080B582B000AF7860D4
:101260007868FFF729FF00BF0837BD4680BD80B50D
:1012700086B000AF0346B9607A60FB7300237B61E0
:10128000FFF73EFF78617A68B9687869FFF78EFFEB
:10129000024697F90F3011461846FFF75DFF00BF71
:1012A0001837BD4680BD80B582B000AF0346FB71E4
:1012B00097F907301846FFF731FF00BF0837BD46E2
:1012C00080BD80B582B000AF78607868FFF7A2FF7C
:1012D000034618460837BD4680BD80B483B000AFD2
:1012E00078607B6893F83530DBB2022B04D07B68E2
:1012F00080225A6501230CE07B68052283F83520A3
:101300007B681B681A687B681B6822F001021A6000
:10131000002318460C37BD465DF8047B704700007B
:1013200080B489B000AF7860396000237B6100230E
:101330003B610023BB610023FB6165E10122FB6986
:1013400002FA03F37B613B681B687A6913403B61D7
:101350003A697B699A4240F054813B685B68022B92
:1013600003D03B685B68122B23D1FB69DA087B68EA
:10137000083253F82230BB61FB6903F007039B007E
:101380000F2202FA03F3DB43BA691340BB613B68E7
:101390001A69FB6903F007039B0002FA03F3BA69B9
:1013A0001343BB61FB69DA087B680832B96943F80B
:1013B00022107B681B68BB61FB695B00032202FA99
:1013C00003F3DB43BA691340BB613B685B6803F01E
:1013D0000302FB695B0002FA03F3BA691343BB61C2
:1013E0007B68BA691A603B685B68012B0BD03B686D
:1013F0005B68022B07D03B685B68112B03D03B680E
:101400005B68122B30D17B689B68BB61FB695B001A
:10141000032202FA03F3DB43BA691340BB613B6862
:10142000DA68FB695B0002FA03F3BA691343BB6134
:101430007B68BA699A607B685B68BB610122FB6963
:1014400002FA03F3DB43BA691340BB613B685B6894
:101450001B0903F00102FB6902FA03F3BA691343A3
:10146000BB617B68BA695A607B68DB68BB61FB69FA
:101470005B00032202FA03F3DB43BA691340BB614A
:101480003B689A68FB695B0002FA03F3BA6913438D
:10149000BB617B68BA69DA603B685B6803F08053C4
:1014A000002B00F0AE800023FB605C4B5B6C5B4A62
:1014B00043F480435364594B5B6C03F48043FB60FB
:1014C000FB68574AFB699B08023352F82330BB6123
:1014D000FB6903F003039B000F2202FA03F3DB43D3
:1014E000BA691340BB617B684E4A934225D07B6842
:1014F0004D4A93421FD07B684C4A934219D07B6877
:101500004B4A934213D07B684A4A93420DD07B6882
:10151000494A934207D07B68484A934201D1062347
:101520000CE007230AE0052308E0042306E0032378
:1015300004E0022302E0012300E00023FA6902F044
:10154000030292009340BA691343BB613449FB69BB
:101550009B080233BA6941F82320394B1B68BB61F1
:101560003B69DB43BA691340BB613B685B6803F4CA
:101570008033002B03D0BA693B691343BB61304A07
:10158000BB6913602E4B5B68BB613B69DB43BA6987
:101590001340BB613B685B6803F40033002B03D04E
:1015A000BA693B691343BB61254ABB695360244B4D
:1015B0009B68BB613B69DB43BA691340BB613B6815
:1015C0005B6803F48013002B03D0BA693B691343B3
:1015D000BB611B4ABB699360194BDB68BB613B690C
:1015E000DB43BA691340BB613B685B6803F40013DB
:1015F000002B03D0BA693B691343BB61104ABB6936
:10160000D360FB690133FB61FB690F2B7FF696AE5C
:1016100000BF2437BD465DF8047B704700380240A8
:10162000003801400000024000040240000802406F
:10163000000C02400010024000140240001802405A
:10164000003C014080B483B000AF78600B467B80E3
:1016500013467B707B78002B03D07A887B689A6175
:1016600003E07B881A047B689A6100BF0C37BD4693
:101670005DF8047B704780B483B000AF78600B46A0
:101680007B807B685A697B881A407B889A4204D1A8
:101690007B881A047B689A6102E07A887B689A6189
:1016A00000BF0C37BD465DF8047B704780B584B041
:1016B00000AF78607B68002B01D101230FE17B68CC
:1016C00093F83D30DBB2002B06D17B68002283F813
:1016D0003C20786803F078FB7B68242283F83D2067
:1016E0007B681B681A687B681B6822F001021A601D
:1016F00001F0BCFDF8607B685B687B4A934207D8C9
:10170000FB687A4A934294BF01230023DBB206E0D0
:10171000FB68774A934294BF01230023DBB2002B7E
:1017200001D00123DBE0FB68724AA2FB03239B0C80
:10173000BB607B681B685B6823F03F017B681B68AC
:10174000BA680A435A607B681B681B6A23F03F0132
:101750007B685B68644A934202D8BB68013309E046
:10176000BB684FF4967202FB03F3634AA2FB0323A8
:101770009B0901337A6812680B4313627B681B680C
:10178000DB6923F44F4222F0FF027B685B68564915
:101790008B420DD8FB68591E7B685B685B00B1FB10
:1017A000F3F30133C3F30B03042B38BF04234FE0DF
:1017B0007B689B68002B11D1FB68581E7B685968B9
:1017C0000B465B000B44B0FBF3F30133C3F30B0395
:1017D000002B0CBF01230023DBB212E0FB68581E74
:1017E0007B6859680B469B000B4499000B44B0FB87
:1017F000F3F30133C3F30B03002B0CBF01230023CE
:10180000DBB2002B01D0012322E07B689B68002B18
:101810000ED1FB68581E7B6859680B465B000B4471
:10182000B0FBF3F30133C3F30B0343F400430FE0C6
:10183000FB68581E7B6859680B469B000B44990057
:101840000B44B0FBF3F30133C3F30B0343F4404306
:10185000796809681343CB617B681B681B6823F0B8
:10186000C0017B68DA697B681B6A1A437B681B6866
:101870000A431A607B681B689B6823F4034323F0C8
:10188000FF037A6811697A68D26811437A6812682E
:101890000B4393607B681B68DB6823F0FF017B6868
:1018A0005A697B689B691A437B681B680A43DA6044
:1018B0007B681B681A687B681B6842F001021A602B
:1018C0007B6800221A647B68202283F83D207B68B5
:1018D00000221A637B68002283F83E20002318460A
:1018E0001037BD4680BD00BFA08601007F841E006A
:1018F000FF083D0083DE1B43D34D621080B588B0E6
:1019000002AFF8607A601A460B467B8113463B8132
:10191000FFF7A4FB7861FB6893F83D30DBB2202B26
:1019200040F0E0807B690093192301227049F86838
:1019300001F0D0F90346002B01D00223D3E0FB686D
:1019400093F83C30012B01D10223CCE0FB6801224B
:1019500083F83C20FB681B681B6803F00103012B24
:1019600007D0FB681B681A68FB681B6842F001021D
:101970001A60FB681B681A68FB681B6822F4006227
:101980001A60FB68212283F83D20FB68102283F84F
:101990003E20FB6800221A64FB687A685A62FB6882
:1019A0003A895A85FB685B8D9AB2FB681A85FB6899
:1019B000504ADA6279897B693A6AF86800F004FF74
:1019C0000346002B01D001238DE000233B61FB681F
:1019D0001B685B693B61FB681B689B693B613B69FA
:1019E00066E07A69396AF86801F04AFA0346002B22
:1019F0000DD0FB681B6C042B07D1FB681B681A68B1
:101A0000FB681B6842F400721A6001236BE0FB68FC
:101A10005B6A1A78FB681B681A61FB685B6A5A1C70
:101A2000FB685A62FB685B8D9BB2013B9AB2FB6814
:101A30005A85FB681B8D013B9AB2FB681A85FB68CF
:101A40001B685B6903F00403042B1BD1FB681B8D2F
:101A5000002B17D0FB685B6A1A78FB681B681A6159
:101A6000FB685B6A5A1CFB685A62FB685B8D9BB221
:101A7000013B9AB2FB685A85FB681B8D013B9AB209
:101A8000FB681A857A69396AF86801F03AFA034600
:101A9000002B0DD0FB681B6C042B07D1FB681B6867
:101AA0001A68FB681B6842F400721A6001231AE08E
:101AB000FB681B8D002B94D1FB681B681A68FB68C0
:101AC0001B6842F400721A60FB68202283F83D20F4
:101AD000FB68002283F83E20FB68002283F83C204C
:101AE000002300E0022318461837BD4680BD00BF22
:101AF000020010000000FFFF80B58CB002AFF8605C
:101B00007A601A460B467B8113463B81FFF7A6FAA3
:101B10007862FB6893F83D30DBB2202B40F00B82FB
:101B20007B6A0093192301227C49F86801F0D2F8FE
:101B30000346002B01D00223FEE1FB6893F83C3002
:101B4000012B01D10223F7E1FB68012283F83C203D
:101B5000FB681B681B6803F00103012B07D0FB68BF
:101B60001B681A68FB681B6842F001021A60FB6878
:101B70001B681A68FB681B6822F400621A60FB6825
:101B8000222283F83D20FB68102283F83E20FB6868
:101B900000221A64FB687A685A62FB683A895A859F
:101BA000FB685B8D9AB2FB681A85FB685C4ADA6257
:101BB00079897B6A3A6BF86800F07CFE0346002B5B
:101BC00001D00123B8E1FB681B8D002B13D100234A
:101BD0003B62FB681B685B693B62FB681B689B6937
:101BE0003B623B6AFB681B681A68FB681B6842F42F
:101BF00000721A608CE1FB681B8D012B1BD1FB6806
:101C00001B681A68FB681B6822F480621A60002354
:101C1000FB61FB681B685B69FB61FB681B689B6978
:101C2000FB61FB69FB681B681A68FB681B6842F470
:101C300000721A606CE1FB681B8D022B1BD1FB68E4
:101C40001B681A68FB681B6822F480621A60FB68D4
:101C50001B681A68FB681B6842F400621A60002364
:101C6000BB61FB681B685B69BB61FB681B689B69A8
:101C7000BB61BB694CE1FB681B681A68FB681B68A9
:101C800042F480621A6000237B61FB681B685B6919
:101C90007B61FB681B689B697B617B6938E1FB6842
:101CA0001B8D032B00F2F180FB681B8D012B23D1D0
:101CB0007A6A396BF86801F065F90346002B01D0A8
:101CC000012339E1FB681B681A69FB685B6AD2B2C1
:101CD0001A70FB685B6A5A1CFB685A62FB681B8DB2
:101CE000013B9AB2FB681A85FB685B8D9BB2013B96
:101CF0009AB2FB685A850BE1FB681B8D022B4ED113
:101D00007B6A00933B6B00220649F86800F0E2FF13
:101D10000346002B08D001230EE100BF0200100093
:101D20000000FFFF04000100FB681B681A68FB68E5
:101D30001B6842F400721A60FB681B681A69FB6832
:101D40005B6AD2B21A70FB685B6A5A1CFB685A6203
:101D5000FB681B8D013B9AB2FB681A85FB685B8DA3
:101D60009BB2013B9AB2FB685A85FB681B681A69F3
:101D7000FB685B6AD2B21A70FB685B6A5A1CFB682C
:101D80005A62FB681B8D013B9AB2FB681A85FB689F
:101D90005B8D9BB2013B9AB2FB685A85B8E07B6AC7
:101DA00000933B6B00226649F86800F093FF0346FE
:101DB000002B01D00123BFE0FB681B681A68FB6899
:101DC0001B6822F480621A60FB681B681A69FB6852
:101DD0005B6AD2B21A70FB685B6A5A1CFB685A6273
:101DE000FB681B8D013B9AB2FB681A85FB685B8D13
:101DF0009BB2013B9AB2FB685A857B6A00933B6BAE
:101E000000224F49F86800F065FF0346002B01D01F
:101E1000012391E0FB681B681A68FB681B6842F4A9
:101E200000721A60FB681B681A69FB685B6AD2B2B1
:101E30001A70FB685B6A5A1CFB685A62FB681B8D50
:101E4000013B9AB2FB681A85FB685B8D9BB2013B34
:101E50009AB2FB685A85FB681B681A69FB685B6A63
:101E6000D2B21A70FB685B6A5A1CFB685A62FB6844
:101E70001B8D013B9AB2FB681A85FB685B8D9BB298
:101E8000013B9AB2FB685A8542E07A6A396BF8687E
:101E900001F078F80346002B01D001234CE0FB68E9
:101EA0001B681A69FB685B6AD2B21A70FB685B6ACE
:101EB0005A1CFB685A62FB681B8D013B9AB2FB6897
:101EC0001A85FB685B8D9BB2013B9AB2FB685A8511
:101ED000FB681B685B6903F00403042B18D1FB68E3
:101EE0001B681A69FB685B6AD2B21A70FB685B6A8E
:101EF0005A1CFB685A62FB681B8D013B9AB2FB6857
:101F00001A85FB685B8D9BB2013B9AB2FB685A85D0
:101F1000FB681B8D002B7FF4C2AEFB68202283F888
:101F20003D20FB68002283F83E20FB68002283F8F6
:101F30003C20002300E0022318462837BD4680BD20
:101F40000400010080B588B002AFF8600846114671
:101F50001A4603467B810B463B811346FB80FFF705
:101F60007DF87861FB6893F83D30DBB2202B40F0C0
:101F7000D9807B690093192301226D49F86800F02C
:101F8000A9FE0346002B01D00223CCE0FB6893F8A6
:101F90003C30012B01D10223C5E0FB68012283F80C
:101FA0003C20FB681B681B6803F00103012B07D072
:101FB000FB681B681A68FB681B6842F001021A6024
:101FC000FB681B681A68FB681B6822F400621A60D1
:101FD000FB68212283F83D20FB68402283F83E20E5
:101FE000FB6800221A64FB683A6A5A62FB68BA8C82
:101FF0005A85FB685B8D9AB2FB681A85FB684D4A6F
:10200000DA62F8883A8979897B690193BB6A00931F
:102010000346F86800F004FD0346002B52D001236C
:1020200081E07A69B96AF86800F02AFF0346002B5C
:102030000DD0FB681B6C042B07D1FB681B681A686A
:10204000FB681B6842F400721A6001236BE0FB68B6
:102050005B6A1A78FB681B681A61FB685B6A5A1C2A
:10206000FB685A62FB681B8D013B9AB2FB681A85BC
:10207000FB685B8D9BB2013B9AB2FB685A85FB689B
:102080001B685B6903F00403042B1BD1FB681B8DE9
:10209000002B17D0FB685B6A1A78FB681B681A6113
:1020A000FB685B6A5A1CFB685A62FB681B8D013B2C
:1020B0009AB2FB681A85FB685B8D9BB2013B9AB2B2
:1020C000FB685A85FB681B8D002BAAD17A69B96A17
:1020D000F86800F016FF0346002B0DD0FB681B6C60
:1020E000042B07D1FB681B681A68FB681B6842F465
:1020F00000721A60012316E0FB681B681A68FB680F
:102100001B6842F400721A60FB68202283F83D20AD
:10211000FB68002283F83E20FB68002283F83C2005
:10212000002300E0022318461837BD4680BD00BFDB
:10213000020010000000FFFF80B58CB002AFF86015
:10214000084611461A4603467B810B463B811346DF
:10215000FB80FEF783FF7862FB6893F83D30DBB2CB
:10216000202B40F008827B6A0093192301227B49CF
:10217000F86800F0AFFD0346002B01D00223FBE11D
:10218000FB6893F83C30012B01D10223F4E1FB689A
:10219000012283F83C20FB681B681B6803F00103E5
:1021A000012B07D0FB681B681A68FB681B6842F0AC
:1021B00001021A60FB681B681A68FB681B6822F43E
:1021C00000621A60FB68222283F83D20FB684022EF
:1021D00083F83E20FB6800221A64FB683A6B5A625F
:1021E000FB68BA8E5A85FB685B8D9AB2FB681A85CC
:1021F000FB685B4ADA62F8883A8979897B6A0193DD
:10220000BB6B00930346F86800F094FC0346002B78
:1022100001D00123B0E1FB681B8D002B13D10023FB
:102220003B62FB681B685B693B62FB681B689B69E0
:102230003B623B6AFB681B681A68FB681B6842F4D8
:1022400000721A6084E1FB681B8D012B1BD1FB68B7
:102250001B681A68FB681B6822F480621A600023FE
:10226000FB61FB681B685B69FB61FB681B689B6922
:10227000FB61FB69FB681B681A68FB681B6842F41A
:1022800000721A6064E1FB681B8D022B1BD1FB6896
:102290001B681A68FB681B6822F480621A60FB687E
:1022A0001B681A68FB681B6842F400621A6000230E
:1022B000BB61FB681B685B69BB61FB681B689B6952
:1022C000BB61BB6944E100237B61FB681B685B6900
:1022D0007B61FB681B689B697B617B6938E1FB68FC
:1022E0001B8D032B00F2F180FB681B8D012B23D18A
:1022F0007A6AB96BF86800F045FE0346002B01D0FE
:10230000012339E1FB681B681A69FB685B6AD2B27A
:102310001A70FB685B6A5A1CFB685A62FB681B8D6B
:10232000013B9AB2FB681A85FB685B8D9BB2013B4F
:102330009AB2FB685A850BE1FB681B8D022B4ED1CC
:102340007B6A0093BB6B00220649F86800F0C2FC70
:102350000346002B08D001230EE100BF020010004D
:102360000000FFFF04000100FB681B681A68FB689F
:102370001B6842F400721A60FB681B681A69FB68EC
:102380005B6AD2B21A70FB685B6A5A1CFB685A62BD
:10239000FB681B8D013B9AB2FB681A85FB685B8D5D
:1023A0009BB2013B9AB2FB685A85FB681B681A69AD
:1023B000FB685B6AD2B21A70FB685B6A5A1CFB68E6
:1023C0005A62FB681B8D013B9AB2FB681A85FB6859
:1023D0005B8D9BB2013B9AB2FB685A85B8E07B6A81
:1023E0000093BB6B00226649F86800F073FC03465B
:1023F000002B01D00123BFE0FB681B681A68FB6853
:102400001B6822F480621A60FB681B681A69FB680B
:102410005B6AD2B21A70FB685B6A5A1CFB685A622C
:10242000FB681B8D013B9AB2FB681A85FB685B8DCC
:102430009BB2013B9AB2FB685A857B6A0093BB6BE7
:1024400000224F49F86800F045FC0346002B01D0FC
:10245000012391E0FB681B681A68FB681B6842F463
:1024600000721A60FB681B681A69FB685B6AD2B26B
:102470001A70FB685B6A5A1CFB685A62FB681B8D0A
:10248000013B9AB2FB681A85FB685B8D9BB2013BEE
:102490009AB2FB685A85FB681B681A69FB685B6A1D
:1024A000D2B21A70FB685B6A5A1CFB685A62FB68FE
:1024B0001B8D013B9AB2FB681A85FB685B8D9BB252
:1024C000013B9AB2FB685A8542E07A6AB96BF868B8
:1024D00000F058FD0346002B01D001234CE0FB68BF
:1024E0001B681A69FB685B6AD2B21A70FB685B6A88
:1024F0005A1CFB685A62FB681B8D013B9AB2FB6851
:102500001A85FB685B8D9BB2013B9AB2FB685A85CA
:10251000FB681B685B6903F00403042B18D1FB689C
:102520001B681A69FB685B6AD2B21A70FB685B6A47
:102530005A1CFB685A62FB681B8D013B9AB2FB6810
:102540001A85FB685B8D9BB2013B9AB2FB685A858A
:10255000FB681B8D002B7FF4C2AEFB68202283F842
:102560003D20FB68002283F83E20FB68002283F8B0
:102570003C20002300E0022318462837BD4680BDDA
:102580000400010080B58AB002AFF8607A603B6059
:102590000B467B81FEF762FDF8610123BB61FB689E
:1025A00093F83D30DBB2202B40F00581FB690093AE
:1025B000192301228249F86800F08CFB0346002BA6
:1025C00001D00223F8E0FB6893F83C30012B01D1E5
:1025D0000223F1E0FB68012283F83C20FB681B68C2
:1025E0001B6803F00103012B07D0FB681B681A6806
:1025F000FB681B6842F001021A60FB681B681A68DE
:10260000FB681B6822F400621A60FB68242283F8CE
:102610003D20FB6800221A64FB686A4ADA62FB68A4
:102620001B681A68FB681B6842F480721A60FB69B9
:1026300000933B6800224FF00111F86800F04AFB5C
:102640000346002B01D00123B6E07B89DBB21A469A
:10265000FB681B6802F0FE021A61FEF7FFFCF861DE
:10266000FB681B685B6903F00203022B0CBF0123AC
:102670000023DBB2FB75FB681B685B6903F48063B6
:10268000B3F5806F0CBF01230023DBB2BB7525E0DF
:10269000FEF7E4FC0246FB69D31A3A689A4202D379
:1026A0003B68002B03D1FB68A02283F83D20FB6828
:1026B0001B685B6903F00203022B0CBF012300239C
:1026C000DBB2FB75FB681B685B6903F48063B3F5E1
:1026D000806F0CBF01230023DBB2BB75FB6893F84E
:1026E0003D30DBB2A02B05D0FB7D002B02D1BB7DA2
:1026F000002BCDD0FB68202283F83D20FB681B68AF
:102700005B6903F00203022B29D1FB681B681A687E
:10271000FB681B6842F400721A6000233B61FB688F
:102720001B685B693B61FB681B689B693B613B699C
:10273000FB690093192301222149F86800F0CAFAC5
:102740000346002B01D0012336E0FB68202283F8EA
:102750003D20FB68002283F83C2000232CE0FB682E
:102760001B681A68FB681B6842F400721A60FB68F9
:102770001B686FF480625A61FB6900931923012280
:102780000F49F86800F0A6FA0346002B01D0012398
:1027900012E0BB690133BB61BA697B689A42FFF4FE
:1027A0003EAFFB68202283F83D20FB68002283F8BF
:1027B0003C20012300E0022318462037BD4680BD9F
:1027C000020010000000FFFF80B588B002AFF86083
:1027D0007A603B600B467B81FB68DB6A7B617B69CF
:1027E000082B06D07B69012B03D07B6913F5803F52
:1027F00008D1FB681B681A68FB681B6842F480728A
:102800001A600BE0FB681B6B122B07D1FB681B687F
:102810001A68FB681B6842F480721A603B68009378
:102820007B6800224FF00111F86800F053FA03466C
:10283000002B01D0012335E0FB681B69B3F5804F05
:1028400008D17B89DBB21A46FB681B6802F0FE02E6
:102850001A611BE07B89DB11DBB203F00603DBB2FC
:1028600063F00F03DAB2FB681B681A613B687A6891
:102870000E49F86800F085FA0346002B01D00123C9
:1028800010E07B89DAB2FB681B681A613B687A68E2
:102890000749F86800F075FA0346002B01D00123C0
:1028A00000E0002318461837BD4680BD080001002F
:1028B0000200010080B588B002AFF8607A603B602A
:1028C0000B467B81FB68DB6A7B61FB681B681A68CF
:1028D000FB681B6842F480621A607B69082B06D093
:1028E0007B69012B03D07B6913F5803F08D1FB681E
:1028F0001B681A68FB681B6842F480721A600BE060
:10290000FB681B6B112B07D1FB681B681A68FB68FF
:102910001B6842F480721A603B6800937B68002257
:102920004FF00111F86800F0D5F90346002B01D0F3
:1029300001236DE0FB681B69B3F5804F08D17B89EB
:10294000DBB243F00103DAB2FB681B681A6153E0A3
:102950007B89DB11DBB203F00603DBB263F00F030C
:10296000DAB2FB681B681A613B687A682A49F86822
:1029700000F007FA0346002B01D0012348E07B89D1
:10298000DAB2FB681B681A613B687A682349F86809
:1029900000F0F7F90346002B01D0012338E00023B3
:1029A0003B61FB681B685B693B61FB681B689B695B
:1029B0003B613B69FB681B681A68FB681B6842F453
:1029C00080721A603B6800937B6800224FF001110F
:1029D000F86800F07FF90346002B01D0012317E0CF
:1029E0007B89DB11DBB203F00603DBB263F00E037D
:1029F000DAB2FB681B681A613B687A680749F868B5
:102A000000F0BFF90346002B01D0012300E00023B2
:102A100018461837BD4680BD0800010002000100BD
:102A200080B588B002AFF860084611461A460346E2
:102A30007B810B463B811346FB80FB681B681A6851
:102A4000FB681B6842F480721A607B6A00933B6AE1
:102A500000224FF00111F86800F03CF90346002B0A
:102A600001D001235FE07B89DBB21A46FB681B685B
:102A700002F0FE021A617B6A3A6A2D49F86800F09A
:102A800080F90346002B01D001234CE000237B6139
:102A9000FB681B685B697B61FB681B689B697B61EA
:102AA0007B697A6A396AF86800F0EAF90346002B14
:102AB0000DD0FB681B6C042B07D1FB681B681A68E0
:102AC000FB681B6842F400721A6001232BE0FB884C
:102AD000012B05D13B89DAB2FB681B681A6121E042
:102AE0003B891B0A9BB2DAB2FB681B681A617A6ADF
:102AF000396AF86800F0C4F90346002B0DD0FB6872
:102B00001B6C042B07D1FB681B681A68FB681B68E9
:102B100042F400721A60012305E03B89DAB2FB68D7
:102B20001B681A61002318461837BD4680BD00BFD8
:102B30000200010080B588B002AFF8600846114677
:102B40001A4603467B810B463B811346FB80FB689C
:102B50001B681A68FB681B6842F480621A60FB6895
:102B60001B681A68FB681B6842F480721A607B6AF3
:102B700000933B6A00224FF00111F86800F0AAF8B8
:102B80000346002B01D001239EE07B89DBB21A466D
:102B9000FB681B6802F0FE021A617B6A3A6A4C49C4
:102BA000F86800F0EEF80346002B01D001238BE01B
:102BB00000237B61FB681B685B697B61FB681B68AA
:102BC0009B697B617B697A6A396AF86800F058F919
:102BD0000346002B0DD0FB681B6C042B07D1FB6850
:102BE0001B681A68FB681B6842F400721A600123B4
:102BF0006AE0FB88012B05D13B89DAB2FB681B68D0
:102C00001A6121E03B891B0A9BB2DAB2FB681B68A0
:102C10001A617A6A396AF86800F032F90346002BC3
:102C20000DD0FB681B6C042B07D1FB681B681A686E
:102C3000FB681B6842F400721A60012344E03B8980
:102C4000DAB2FB681B681A617A6A396AF86800F0C0
:102C500017F90346002B0DD0FB681B6C042B07D122
:102C6000FB681B681A68FB681B6842F400721A60F4
:102C7000012329E0FB681B681A68FB681B6842F4A3
:102C800080721A607B6A00933B6A00224FF0011148
:102C9000F86800F01FF80346002B01D0012313E071
:102CA0007B89DBB243F00103DAB2FB681B681A616F
:102CB0007B6A3A6A0649F86800F063F80346002B1D
:102CC00001D0012300E0002318461837BD4680BD1F
:102CD0000200010080B584B000AFF860B9603B60CD
:102CE0001346FB7125E03B68B3F1FF3F21D0FEF7AF
:102CF000B5F90246BB69D31A3A689A4202D33B68D7
:102D0000002B16D1FB6800221A63FB68202283F88F
:102D10003D20FB68002283F83E20FB681B6C43F0DB
:102D20002002FB681A64FB68002283F83C20012320
:102D300023E0BB681B0CDBB2012B0DD1FB681B68C9
:102D40005B69DA43BB6813409BB2002B0CBF0123C5
:102D50000023DBB21A460CE0FB681B689B69DA4370
:102D6000BB6813409BB2002B0CBF01230023DBB2D6
:102D70001A46FB799A42B6D0002318461037BD4652
:102D800080BD80B584B000AFF860B9607A603B6008
:102D900051E0FB681B685B6903F48063B3F5806FE7
:102DA00023D1FB681B681A68FB681B6842F4007239
:102DB0001A60FB681B686FF480625A61FB6800222E
:102DC0001A63FB68202283F83D20FB68002283F809
:102DD0003E20FB681B6C43F00402FB681A64FB682E
:102DE000002283F83C20012346E07B68B3F1FF3FDB
:102DF00021D0FEF733F902463B68D31A7A689A422B
:102E000002D37B68002B16D1FB6800221A63FB6893
:102E1000202283F83D20FB68002283F83E20FB68D7
:102E20001B6C43F02002FB681A64FB68002283F8E5
:102E30003C20012320E0BB681B0CDBB2012B0CD132
:102E4000FB681B685B69DA43BB6813409BB2002BCD
:102E500014BF01230023DBB20BE0FB681B689B69F6
:102E6000DA43BB6813409BB2002B14BF012300233D
:102E7000DBB2002B8DD1002318461037BD4680BD34
:102E800080B584B000AFF860B9607A602DE0F86872
:102E900000F0CEF80346002B01D001232DE0BB68E3
:102EA000B3F1FF3F21D0FEF7D9F802467B68D31A71
:102EB000BA689A4202D3BB68002B16D1FB68002285
:102EC0001A63FB68202283F83D20FB68002283F808
:102ED0003E20FB681B6C43F02002FB681A64FB6811
:102EE000002283F83C20012307E0FB681B685B6934
:102EF00003F08003802BCAD1002318461037BD464B
:102F000080BD80B584B000AFF860B9607A602DE014
:102F1000F86800F08DF80346002B01D001232DE066
:102F2000BB68B3F1FF3F21D0FEF798F802467B68FB
:102F3000D31ABA689A4202D3BB68002B16D1FB6839
:102F400000221A63FB68202283F83D20FB680022E0
:102F500083F83E20FB681B6C43F02002FB681A6478
:102F6000FB68002283F83C20012307E0FB681B6814
:102F70005B6903F00403042BCAD100231846103701
:102F8000BD4680BD80B584B000AFF860B9607A609E
:102F900042E0FB681B685B6903F01003102B19D13A
:102FA000FB681B686FF010025A61FB6800221A630D
:102FB000FB68202283F83D20FB68002283F83E2036
:102FC000FB681A6CFB681A64FB68002283F83C20DB
:102FD000012329E0FEF742F802467B68D31ABA685B
:102FE0009A4202D3BB68002B16D1FB6800221A63F9
:102FF000FB68202283F83D20FB68002283F83E20F6
:10300000FB681B6C43F02002FB681A64FB6800221B
:1030100083F83C20012307E0FB681B685B6903F031
:103020004003402BB5D1002318461037BD4680BD64
:1030300080B483B000AF78607B681B685B6903F481
:103040008063B3F5806F1BD17B681B686FF480626F
:103050005A617B6800221A637B68202283F83D2036
:103060007B68002283F83E207B681B6C43F00402DF
:103070007B681A647B68002283F83C20012300E00F
:10308000002318460C37BD465DF8047B70470000EE
:1030900080B584B000AF786039607B68002B01D1C7
:1030A0000123CAE0674B1B6803F00F033A689A429A
:1030B0000CD9644B3A68D2B21A70624B1B6803F0A9
:1030C0000F033A689A4201D00123B6E07B681B687F
:1030D00003F00203002B20D07B681B6803F004037D
:1030E000002B05D0584B9B68574A43F4E05393603C
:1030F0007B681B6803F00803002B05D0524B9B68CC
:10310000514A43F4604393604F4B9B6823F0F002B5
:103110007B689B684C4913438B607B681B6803F09A
:103120000103002B44D07B685B68012B07D1464B21
:103130001B6803F40033002B19D101237DE07B6869
:103140005B68022B03D07B685B68032B07D13E4B87
:103150001B6803F00073002B09D101236DE03A4B8B
:103160001B6803F00203002B01D1012365E0364BFD
:103170009B6823F003027B685B68334913438B60D1
:10318000FDF76CFFF8600AE0FDF768FF0246FB6898
:10319000D31A41F28832934201D903234DE02A4BDE
:1031A0009B6803F00C027B685B689B009A42EBD142
:1031B000244B1B6803F00F033A689A420CD2214B50
:1031C0003A68D2B21A701F4B1B6803F00F033A68BB
:1031D0009A4201D0012330E07B681B6803F00403AE
:1031E000002B08D0184B9B6823F4E0527B68DB6807
:1031F000154913438B607B681B6803F00803002BA1
:1032000009D0114B9B6823F460427B681B69DB008B
:103210000D4913438B6000F051F801460A4B9B683F
:103220001B0903F00F03094AD35C21FA03F3084A90
:1032300013600020FDF7CEFE002318461037BD4670
:1032400080BD00BF003C024000380240B48400084A
:103250000800002080B400AF034B1B681846BD4631
:103260005DF8047B704700BF0800002080B500AF08
:10327000FFF7F0FF0146054B9B689B0A03F007032D
:10328000034AD35C21FA03F3184680BD003802409C
:10329000C484000880B500AFFFF7DCFF0146054B92
:1032A0009B685B0B03F00703034AD35C21FA03F32B
:1032B000184680BD00380240C4840008F0B587B0CD
:1032C00000AF0023FB6000237B610023BB60002371
:1032D0007B6000233B61C64B9B6803F00C030C2B07
:1032E00000F27E8101A252F823F000BF21330008D2
:1032F000E1350008E1350008E13500082733000812
:10330000E1350008E1350008E13500082D330008FB
:10331000E1350008E1350008E1350008893400088E
:10332000B44B3B615FE1B44B3B615CE1B04B5B682C
:1033300003F03F03FB60AE4B5B6803F48003002B9C
:103340004AD0AB4B5B689B094FF0000440F2FF1181
:103350004FF0000203EA010504EA0206294632465C
:103360004FF000034FF00004540144EAD1644B01D4
:1033700019462246491B62EB06024FF000034FF04C
:103380000004940144EA91648B015B1A64EB02042B
:103390004FF000014FF00002E20042EA5372D90000
:1033A0000B4614465B1944EB06044FF000014FF046
:1033B0000002620242EAD35259020B4614461846F2
:1033C0002146FB684FF000041A462346FDF7DCFB5C
:1033D00003460C467B6149E0854B5B689B094FF0D7
:1033E000000440F2FF114FF0000203EA010504EA75
:1033F0000206294632464FF000034FF00004540104
:1034000044EAD1644B0119462246491B62EB06028D
:103410004FF000034FF00004940144EA91648B01E3
:103420005B1A64EB02044FF000014FF00002E2006F
:1034300042EA5372D9000B4614465B1944EB06046A
:103440004FF000014FF00002A20242EA93529902AB
:103450000B46144618462146FB684FF000041A46F6
:103460002346FDF791FB03460C467B61604B5B688E
:103470001B0C03F0030301335B00BB607A69BB687C
:10348000B2FBF3F33B61AEE0594B5B6803F03F03E3
:10349000FB60574B5B6803F48003002B4AD0544B0E
:1034A0005B689B094FF0000440F2FF114FF00002EF
:1034B00003EA010504EA0206294632464FF00003FA
:1034C0004FF00004540144EAD1644B0119462246EE
:1034D000491B62EB06024FF000034FF00004940119
:1034E00044EA91648B015B1A64EB02044FF0000123
:1034F0004FF00002E20042EA5372D9000B46144634
:103500005B1944EB06044FF000014FF00002620229
:1035100042EAD35259020B46144618462146FB682C
:103520004FF000041A462346FDF72EFB03460C46D7
:103530007B6149E02E4B5B689B094FF0000440F231
:10354000FF114FF0000203EA010504EA02062946D2
:1035500032464FF000034FF00004540144EAD164B6
:103560004B0119462246491B62EB06024FF000034D
:103570004FF00004940144EA91648B015B1A64EB00
:1035800002044FF000014FF00002E20042EA5372E1
:10359000D9000B4614465B1944EB06044FF00001BA
:1035A0004FF00002A20242EA935299020B461446DF
:1035B00018462146FB684FF000041A462346FDF7E3
:1035C000E3FA03460C467B61094B5B681B0F03F073
:1035D00007037B607A697B68B2FBF3F33B6102E02F
:1035E000044B3B6100BF3B6918461C37BD46F0BD2C
:1035F000003802400024F40000127A0080B586B042
:1036000000AF786000233B617B681B6803F0010317
:10361000002B00F08380954B9B6803F00C03042B78
:1036200019D0924B9B6803F00C03082B06D18F4BEB
:103630005B6803F48003B3F5800F0CD08B4B9B6861
:1036400003F00C030C2B12D1884B5B6803F480034E
:10365000B3F5800F0BD1854B1B6803F40033002BAF
:103660005BD07B685B68002B57D1012316E27B6837
:103670005B68B3F5803F06D17C4B1B687B4A43F403
:10368000803313601DE07B685B68B3F5A02F0CD11D
:10369000764B1B68754A43F480231360734B1B6899
:1036A000724A43F4803313600BE0704B1B686F4A1F
:1036B00023F4803313606D4B1B686C4A23F4802322
:1036C00013607B685B68002B13D0FDF7C7FC386183
:1036D00008E0FDF7C3FC02463B69D31A642B01D90D
:1036E0000323DBE1614B1B6803F40033002BF0D0B4
:1036F00014E0FDF7B3FC386108E0FDF7AFFC0246CB
:103700003B69D31A642B01D90323C7E1574B1B68CC
:1037100003F40033002BF0D100E000BF7B681B688E
:1037200003F00203002B6FD0504B9B6803F00C0397
:10373000002B17D04D4B9B6803F00C03082B05D1D1
:103740004A4B5B6803F48003002B0BD0474B9B680C
:1037500003F00C030C2B1CD1444B5B6803F4800377
:10376000002B16D1414B1B6803F00203002B05D040
:103770007B68DB68012B01D001238FE13B4B1B6889
:1037800023F0F8027B681B69DB00384913430B60A8
:103790003AE07B68DB68002B20D0354B01221A60B1
:1037A000FDF75CFC386108E0FDF758FC02463B6918
:1037B000D31A022B01D9032370E12C4B1B6803F0B1
:1037C0000203002BF0D0294B1B6823F0F8027B6822
:1037D0001B69DB00254913430B6015E0244B0022D5
:1037E0001A60FDF73BFC386108E0FDF737FC024644
:1037F0003B69D31A022B01D903234FE11B4B1B68F2
:1038000003F00203002BF0D17B681B6803F0080370
:10381000002B37D07B685B69002B16D0154B01223B
:103820001A60FDF71BFC386108E0FDF717FC024643
:103830003B69D31A022B01D903232FE10B4B5B6F9A
:1038400003F00203002BF0D01CE00A4B00221A60A8
:10385000FDF704FC38610FE0FDF700FC02463B6910
:10386000D31A022B08D9032318E100BF0038024005
:1038700000004742800E47428A4B5B6F03F0020311
:10388000002BE9D17B681B6803F00403002B00F0D8
:1038900097800023FB75834B1B6C03F08053002B38
:1038A0000FD10023FB607F4B1B6C7E4A43F080539B
:1038B00013647C4B1B6C03F08053FB60FB6801239B
:1038C000FB75794B1B6803F48073002B18D1764B82
:1038D0001B68754A43F480731360FDF7BFFB3861C2
:1038E00008E0FDF7BBFB02463B69D31A022B01D966
:1038F0000323D3E06C4B1B6803F48073002BF0D0E0
:103900007B689B68012B06D1664B1B6F654A43F0B1
:10391000010313671CE07B689B68052B0CD1614B8E
:103920001B6F604A43F0040313675E4B1B6F5D4AD5
:1039300043F0010313670BE05A4B1B6F594A23F006
:1039400001031367574B1B6F564A23F00403136799
:103950007B689B68002B15D0FDF780FB38610AE07F
:10396000FDF77CFB02463B69D31A41F28832934251
:1039700001D9032392E04B4B1B6F03F00203002B92
:10398000EED014E0FDF76AFB38610AE0FDF766FB54
:1039900002463B69D31A41F28832934201D903238C
:1039A0007CE0404B1B6F03F00203002BEED1FB7D4C
:1039B000012B05D13B4B1B6C3A4A23F08053136417
:1039C0007B689B69002B68D0364B9B6803F00C0327
:1039D000082B60D07B689B69022B45D1334B0022BA
:1039E0001A60FDF73BFB386108E0FDF737FB024644
:1039F0003B69D31A022B01D903234FE0294B1B68E3
:103A000003F00073002BF0D17B68DA697B681B6AD6
:103A10001A437B685B6A9B011A437B689B6A5B085D
:103A2000013B1B041A437B68DB6A1B061A437B6855
:103A30001B6B1B071B4913434B601C4B01221A6075
:103A4000FDF70CFB386108E0FDF708FB02463B6917
:103A5000D31A022B01D9032320E0124B1B6803F079
:103A60000073002BF0D018E0104B00221A60FDF715
:103A7000F5FA386108E0FDF7F1FA02463B69D31A1E
:103A8000022B01D9032309E0064B1B6803F00073E6
:103A9000002BF0D101E0012300E000231846183785
:103AA000BD4680BD003802400070004060004742C3
:103AB00080B582B000AF78607B68002B01D1012314
:103AC0003FE07B6893F83930DBB2002B06D17B688E
:103AD000002283F83820786801F0D4FF7B68242224
:103AE00083F839207B681B68DA687B681B6822F4DE
:103AF0000052DA60786800F047FB7B681B681A693F
:103B00007B681B6822F490421A617B681B685A69C3
:103B10007B681B6822F02A025A617B681B68DA689E
:103B20007B681B6842F40052DA607B680022DA632B
:103B30007B68202283F839207B68202283F83A2092
:103B4000002318460837BD4680BD80B588B002AF57
:103B5000F860B9603B601346FB8000237B61FB6823
:103B600093F83930DBB2202B40F08380BB68002B08
:103B700002D0FB88002B01D101237BE0FB6893F886
:103B80003830012B01D1022374E0FB68012283F855
:103B90003820FB680022DA63FB68212283F8392091
:103BA000FDF75CFA7861FB68FA889A84FB68FA880A
:103BB000DA8442E0FB68DB8C9BB2013B9AB2FB6883
:103BC000DA84FB689B68B3F5805F22D13B68009381
:103BD0007B6900228021F86800F06AF90346002B17
:103BE00001D0032346E0BB683B613B691B881A4652
:103BF000FB681B68C2F308025A60FB681B69002B54
:103C000003D1BB680233BB6017E0BB680133BB6004
:103C100013E03B6800937B6900228021F86800F084
:103C200047F90346002B01D0032323E0BB685A1C4D
:103C3000BA601A78FB681B685A60FB68DB8C9BB221
:103C4000002BB7D13B6800937B6900224021F868C4
:103C500000F02EF90346002B01D003230AE0FB6895
:103C6000202283F83920FB68002283F838200023C3
:103C700000E0022318461837BD4680BD80B588B0E5
:103C800000AF78607B681B681B68FB617B681B6802
:103C9000DB68BB617B681B685B697B6100233B6100
:103CA0000023FB60FB6903F00F033B613B69002BC2
:103CB0000DD1FB6903F02003002B08D0BB6903F092
:103CC0002003002B03D0786800F0DCF9CCE03B69DE
:103CD000002B00F0AB807B6903F00103002B05D1C2
:103CE000BB6903F49073002B00F0A080FB6903F024
:103CF0000103002B0AD0BB6903F48073002B05D0AD
:103D00007B68DB6B43F001027B68DA63FB6903F0DD
:103D10000403002B0AD07B6903F00103002B05D0BC
:103D20007B68DB6B43F002027B68DA63FB6903F0BC
:103D30000203002B0AD07B6903F00103002B05D09E
:103D40007B68DB6B43F004027B68DA63FB6903F09A
:103D50000803002B0AD07B6903F00103002B05D078
:103D60007B68DB6B43F008027B68DA637B68DB6BA4
:103D7000002B78D0FB6903F02003002B07D0BB6930
:103D800003F02003002B02D0786800F07BF97B68F9
:103D90001B685B6903F04003402B0CBF0123002329
:103DA000DBB2FB607B68DB6B03F00803002B02D106
:103DB000FB68002B31D0786800F0C4F87B681B6882
:103DC0005B6903F04003402B23D17B681B685A6971
:103DD0007B681B6822F040025A617B685B6B002B9A
:103DE00013D07B685B6B224A1A657B685B6B184655
:103DF000FDF773FA0346002B16D07B685B6B1B6DD7
:103E00007A68526B104698470EE0786800F046F8E2
:103E10000AE0786800F042F806E0786800F03EF8C2
:103E20007B680022DA631EE000BF1CE0FB6903F040
:103E30008003002B08D0BB6903F08003002B03D064
:103E4000786800F0B1F80FE0FB6903F04003002B45
:103E50000AD0BB6903F04003002B05D0786800F05E
:103E6000F9F800BF00E000BF2037BD4680BD00BFAD
:103E7000813F000880B483B000AF786000BF0C378A
:103E8000BD465DF8047B704780B483B000AF7860B6
:103E900000BF0C37BD465DF8047B704780B483B02B
:103EA00000AF786000BF0C37BD465DF8047B7047FB
:103EB00080B584B000AFF860B9603B601346FB7119
:103EC0002CE0BB69B3F1FF3F28D0BB69002B07D0C2
:103ED000FDF7C4F802463B68D31ABA699A421DD26C
:103EE000FB681B68DA68FB681B6822F4D072DA6032
:103EF000FB681B685A69FB681B6822F001025A6163
:103F0000FB68202283F83920FB68202283F83A20BE
:103F1000FB68002283F8382003230FE0FB681B684E
:103F20001A68BB681340BA689A420CBF0123002389
:103F3000DBB21A46FB799A42C3D0002318461037E9
:103F4000BD4680BD80B483B000AF78607B681B68DD
:103F5000DA687B681B6822F49072DA607B681B6801
:103F60005A697B681B6822F001025A617B68202233
:103F700083F83A2000BF0C37BD465DF8047B7047DC
:103F800080B584B000AF78607B689B6BFB60FB689A
:103F90000022DA85FB680022DA84F868FFF77EFFEA
:103FA00000BF1037BD4680BD80B485B000AF7860DB
:103FB0007B6893F83930DBB2212B44D17B689B6856
:103FC000B3F5805F1AD17B681B6AFB60FB681B88B6
:103FD0001A467B681B68C2F308025A607B681B693B
:103FE000002B05D17B681B6A9A1C7B681A620EE065
:103FF0007B681B6A5A1C7B681A6208E07B681B6A34
:10400000591C7A6811621A787B681B685A607B6851
:10401000DB8C9BB2013B9BB27A681946D184002BA2
:104020000FD17B681B68DA687B681B6822F080020E
:10403000DA607B681B68DA687B681B6842F04002C4
:10404000DA60002300E0022318461437BD465DF80D
:10405000047B704780B582B000AF78607B681B68D6
:10406000DA687B681B6822F04002DA607B682022F5
:1040700083F839207868FFF7FDFE002318460837DB
:10408000BD4680BD80B584B000AF78607B6893F892
:104090003A30DBB2222B71D17B689B68B3F5805F2D
:1040A00023D17B689B6AFB607B681B69002B0ED168
:1040B0007B681B685B689BB2C3F308039AB2FB681A
:1040C0001A807B689B6A9A1C7B689A6229E07B68ED
:1040D0001B685B689BB2DBB29AB2FB681A807B6894
:1040E0009B6A5A1C7B689A621BE07B681B69002BE9
:1040F0000AD17B681B6858687B689B6A591C7A6880
:104100009162C2B21A700CE07B681B685B68DAB21D
:104110007B689B6A581C7968886202F07F02D2B281
:104120001A707B68DB8D9BB2013B9BB27A681946A3
:10413000D185002B20D17B681B68DA687B681B68FF
:1041400022F02002DA607B681B68DA687B681B68F3
:1041500022F48072DA607B681B685A697B681B688E
:1041600022F001025A617B68202283F83A207868A5
:10417000FFF78AFE002302E0002300E00223184636
:104180001037BD4680BD0000B0B584B000AF786088
:104190007B681B681B6923F440517B68DA687B6885
:1041A0001B680A431A617B689A687B681B691A431B
:1041B0007B685B691A437B68DB691343FB607B6840
:1041C0001B68DB6823F4164323F00C037A6812683B
:1041D000F9680B43D3607B681B685B6923F440710B
:1041E0007B689A697B681B680A435A617B68DB6954
:1041F000B3F5004F40F0E4807B681B68AB4A934204
:1042000004D07B681B68AA4A93426CD1FFF742F83E
:10421000024613469B0013449A001A447B685B686D
:104220005B00B2FBF3F3A34AA2FB03235B091C016F
:10423000FFF730F8024613469B0013449A001A44D5
:104240007B685B685B00B2FBF3F5FFF723F802467F
:1042500013469B0013449A001A447B685B685B001A
:10426000B2FBF3F3934AA2FB03235B09642202FB34
:1042700003F3EB1ADB0032338E4AA2FB03235B0904
:104280005B0003F4F8731C44FFF704F8024613467E
:104290009B0013449A001A447B685B685B00B2FB86
:1042A000F3F5FEF7F7FF024613469B0013449A000E
:1042B0001A447B685B685B00B2FBF3F37D4AA2FBA8
:1042C00003235B09642202FB03F3EB1ADB003233A6
:1042D000784AA2FB03235B0903F007027B681B6893
:1042E00022449A6054E1FEF7C1FF024613469B0048
:1042F00013449A001A447B685B685B00B2FBF3F3DB
:104300006C4AA2FB03235B091C01FEF7AFFF0246C8
:1043100013469B0013449A001A447B685B685B0059
:10432000B2FBF3F5FEF7A2FF024613469B001344CF
:104330009A001A447B685B685B00B2FBF3F35D4A4A
:10434000A2FB03235B09642202FB03F3EB1ADB00ED
:104350003233584AA2FB03235B095B0003F4F87372
:104360001C44FEF783FF024613469B0013449A0049
:104370001A447B685B685B00B2FBF3F5FEF776FFDF
:10438000024613469B0013449A001A447B685B68FC
:104390005B00B2FBF3F3474AA2FB03235B096422F1
:1043A00002FB03F3EB1ADB003233424AA2FB032386
:1043B0005B0903F007027B681B6822449A60E7E010
:1043C0007B681B68394A934204D07B681B68384A73
:1043D000934271D1FEF75EFF024613469B001344E1
:1043E0009A001A447B685B689B00B2FBF3F3314A86
:1043F000A2FB03235B091C01FEF74CFF0246134698
:104400009B0013449A001A447B685B689B00B2FBD4
:10441000F3F5FEF73FFF024613469B0013449A0054
:104420001A447B685B689B00B2FBF3F3214AA2FB52
:1044300003235B09642202FB03F3EB1A1B013233F3
:104440001C4AA2FB03235B0903F0F0031C44FEF7A4
:1044500021FF024613469B0013449A001A447B68CE
:104460005B689B00B2FBF3F5FEF714FF02461346B0
:104470009B0013449A001A447B685B689B00B2FB64
:10448000F3F30C4AA2FB03235B09642202FB03F350
:10449000EB1A1B013233074AA2FB03235B0903F02B
:1044A0000F027B681B6822449A6071E00010014093
:1044B000001401401F85EB51FEF7D8FE024613465B
:1044C0009B0013449A001A447B685B689B00B2FB14
:1044D000F3F3314AA2FB03235B091C01FEF7C6FE7E
:1044E000024613469B0013449A001A447B685B689B
:1044F0009B00B2FBF3F5FEF7B9FE024613469B00A4
:1045000013449A001A447B685B689B00B2FBF3F388
:10451000214AA2FB03235B09642202FB03F3EB1A8B
:104520001B0132331C4AA2FB03235B0903F0F00397
:104530001C44FEF79BFE024613469B0013449A0060
:104540001A447B685B689B00B2FBF3F5FEF78EFEB6
:10455000024613469B0013449A001A447B685B682A
:104560009B00B2FBF3F30C4AA2FB03235B0964221A
:1045700002FB03F3EB1A1B013233074AA2FB0323AE
:104580005B0903F00F027B681B6822449A60FFE717
:1045900000BF1037BD46B0BD1F85EB5180B586B05A
:1045A00002AF78601E237B7307F10D020A2300938C
:1045B0000123EC217868FDF7A1F90346002B01D017
:1045C00000231CE00A20FCF755FD786800F01EF877
:1045D0000D4B1B881B0B9BB2FB730B4800F0C4FAFE
:1045E000F0EE407AFCEEE77AC7ED007A3B68BB73E9
:1045F000BA7BFB7B9A4201D1012300E000231846DD
:104600001037BD4680BD00BFFC01002080B586B0DC
:1046100002AF78600023FB7326E0FB7B5033DBB2F4
:104620005B00DBB2BB7307F10E020A230093012388
:10463000EC217868FDF762F907F10C020A23009378
:104640000223EC217868FDF757FA3B7B1B021AB274
:104650007B7B1BB213431AB2FB7B91B2064A22F852
:104660001310FB7B0133FB73FB7B062BD5D900BFFB
:104670001037BD4680BD00BFFC01002080B586B06C
:1046800002AF78604A23FB7307F10F020A230093FD
:104690000123EC217868FDF731F91420FCF7EAFCDE
:1046A0000023FB7307F10F020A2300930123EC217F
:1046B0007868FDF723F907F10C020A23009303231E
:1046C000EC217868FDF718FA0C4B00221A603B7B4E
:1046D0001A460A4B1A60094B1B681B027A7B13436C
:1046E000064A1360054B1B681B02BA7B1343034A3F
:1046F000136000BF1037BD4680BD00BF0C02002014
:1047000080B586B002AF78605A23FB7307F10F02C1
:104710000A2300930123EC217868FDF7EFF81420B9
:10472000FCF7A8FC0023FB7307F10F020A23009398
:104730000123EC217868FDF7E1F807F10C020A2368
:1047400000930323EC217868FDF7D6F90C4B002287
:104750001A603B7B1A460A4B1A60094B1B681B0206
:104760007A7B1343064A1360054B1B681B02BA7B16
:104770001343034A136000BF1037BD4680BD00BF1E
:104780001002002080B58AB000AF78604FF00003BF
:10479000BB614FF000037B614FF000033B614FF0C2
:1047A00000037B624FF000033B624FF00003FB61AC
:1047B0004FF00003FB604FF00003BB607868FFF729
:1047C0009FFF7868FFF75AFFBD4B1B6807EE903AD2
:1047D000B8EE677ABB4B5B8907EE903AF8EE677AE2
:1047E000DFEDB96A67EEA67A77EE677AC7ED067AEB
:1047F000B44B9B8907EE903AB8EE677AD7ED067A0C
:1048000027EE277ADFEDB16AC7EE267A9FEDB07A00
:1048100077EE877AAF4BC3ED007AAA4B9B8807EE01
:10482000903AF8EE677A9FEDAC7A27EE877AA54B3F
:104830001B8907EE903AF8EE676AD7ED067A66EEC6
:10484000A76A9FEDA66AC6EE867A77EE277AC7ED4D
:10485000047A9C4B5B8807EE903AF8EE677A9FEDFE
:10486000A07A27EE877A974BDB8807EE903AF8EE2E
:10487000676AD7ED067A66EEA76A9FED936AC6EE81
:10488000867A77EE277AC7ED057A964B1B6807EE96
:10489000903AB8EE677AD7ED057A67EE277ADFEDC2
:1048A000926A87EEA67AD7ED047A37EE677ADFED63
:1048B0008F6AC7EE267A8E4BC3ED007A854B93ED57
:1048C000007ADFED8C6AC7EE267AB3EE047AF4EE56
:1048D000C77AF1EE10FA40F18780D7ED067AB0EE94
:1048E000087A27EE877AD7ED067A27EE277ADFED6A
:1048F000826AC7EE267AC7ED077A764BD3ED007A47
:104900009FED737A77EEC77AB0EE087A27EE877A52
:10491000704BD3ED007ADFED6E6A77EEE67A27EE24
:10492000277AF0EE006AC7EE267AC7ED087A694B5F
:10493000D3ED007A9FED667A77EEC77AB1EE047A0E
:1049400027EE877A634BD3ED007ADFED616A77EE6D
:10495000E67A27EE277AF2EE006AC7EE267AC7EDEE
:10496000097A5C4B93ED007ADFED626AC7EE267A36
:10497000BAEE0E7AF4EEC77AF1EE10FA69D5554B1D
:10498000D3ED007A9FED5D7A37EE877A514BD3ED08
:10499000007ADFED5A6A77EEA67A67EE277AB1EEF3
:1049A0000C7A67EE877A97ED087A77EE277AC7ED6B
:1049B000087A484BD3ED007A9FED507A77EE877AEC
:1049C000B1EE007A27EE877A424BD3ED007ADFED25
:1049D0004B6A77EEA67A67EE277A97ED097A77EE3B
:1049E000277AC7ED097A34E03A4B93ED007ADFED90
:1049F000416AC7EE267AB3EE047AF4EEC77AF1EE96
:104A000010FA26DB97ED067AD7ED067A67EE277A5D
:104A100037EEA77ADFED3A6AC7EE267AC7ED077A56
:104A20002C4BD3ED007A9FED2A7A37EEC77A294BCB
:104A3000D3ED007ADFED266A77EEE67A27EE277A65
:104A4000F3EE006AC7EE267AC7ED087A4FF000034E
:104A50007B6297ED047AD7ED087A77EE677AC7ED37
:104A6000037A97ED057AD7ED097A77EE677AC7ED85
:104A7000027A184B93ED007AD7ED077A77EE677AD2
:104A8000144BC3ED007A174B1B6807EE903AB8EE53
:104A9000677AD7ED027A67EE277ADFED136A87EE41
:104AA000A67AD7ED037A37EE677ADFED106AC7EEA4
:104AB000267A0F4BC3ED007A00BF2837BD4680BD74
:104AC00010020020FC010020000080430000004B89
:104AD0000000FA4414020020000080470000004358
:104AE000000000470C0200200000004A00000046C1
:104AF000180200200000C842000000500080BB44A3
:104B00000000005280B582B000AF78607868FFF78F
:104B100039FE074BD3ED007AB2EE047AC7EE876A0E
:104B2000F0EE667AB0EE670A0837BD4680BD00BF7A
:104B30001802002080B582B000AF78607868FFF777
:104B400021FE074BD3ED007A9FED067AC7EE876A08
:104B5000F0EE667AB0EE670A0837BD4680BD00BF4A
:104B6000140200200000C84280B485B000AF786015
:104B70000023FB817B681B88C3F30B039AB27B681D
:104B80001A807B680E3300221A8000237B733CE07E
:104B90007B7B03F00103DBB2002B0FD07B7B5B0838
:104BA000DBB25B007A6813441B881BB2DBB21AB21B
:104BB000B7F90E3053401BB2FB810BE07B7B5B08E7
:104BC000DBB25B007A6813441B881B0A9AB2FB892C
:104BD0005340FB8108233B7311E0B7F90E30002BE3
:104BE00007DAFB895B001BB283F440531BB2FB81E5
:104BF00002E0FB895B00FB813B7B013B3B733B7B22
:104C0000002BEAD17B7B01337B737B7B0F2BBFD9DE
:104C1000FB891B0BFB81FB8907EE903AF8EEE77AE4
:104C2000B0EE670A1437BD465DF8047B704700009C
:104C300080B58AB000AF07F1140300221A605A60F1
:104C40009A60DA601A6100233B612D4B1B6B2C4A82
:104C500043F0040313632A4B1B6B03F004033B6113
:104C60003B690023FB60264B1B6B254A43F0800306
:104C70001363234B1B6B03F08003FB60FB68002373
:104C8000BB601F4B1B6B1E4A43F0010313631C4B9D
:104C90001B6B03F00103BB60BB6800237B60184BF8
:104CA0001B6B174A43F002031363154B1B6B03F096
:104CB00002037B607B68002220211248FCF7C2FCC3
:104CC0004FF400537B61104BBB610023FB6107F184
:104CD000140319460D48FCF723FB20237B610123B5
:104CE000BB610023FB6100233B6207F114031946FB
:104CF0000448FCF715FB00BF2837BD4680BD00BF48
:104D0000003802400000024000002110000802406C
:104D100080B500AF124B134A1A60114B124A5A6009
:104D20000F4B00229A600E4B0022DA600C4B4FF4BE
:104D300080421A610A4B00225A61094B00229A6193
:104D4000074B0022DA61064B00221A620448FCF786
:104D5000ADFC0346002B01D000F064FA00BF80BD1B
:104D60008402002000540040A086010080B500AFFE
:104D7000124B134A1A60114B124A5A600F4B002211
:104D80009A600E4B0022DA600C4B4FF480421A619D
:104D90000A4B00225A61094B00229A61074B0022FC
:104DA000DA61064B00221A620448FCF77FFC0346D6
:104DB000002B01D000F036FA00BF80BD3002002089
:104DC000005C0040A086010080B58CB000AF786028
:104DD00007F11C0300221A605A609A60DA601A61B7
:104DE0007B681B68424A93422DD10023BB61414B33
:104DF0001B6B404A43F0020313633E4B1B6B03F0F3
:104E00000203BB61BB694FF44073FB6112233B6239
:104E100001237B620323BB620423FB6207F11C03B3
:104E200019463548FCF77CFA00237B61314B1B6C3B
:104E3000304A43F4001313642E4B1B6C03F400132D
:104E40007B617B694FE07B681B682C4A93424AD1A7
:104E500000233B61274B1B6B264A43F0010313637E
:104E6000244B1B6B03F001033B613B690023FB6098
:104E7000204B1B6B1F4A43F0020313631D4B1B6B3C
:104E800003F00203FB60FB684FF48073FB611223A5
:104E90003B6201237B620323BB620423FB6207F1B5
:104EA0001C0319461648FCF73BFA1023FB6112233A
:104EB0003B6201237B620323BB620423FB6207F195
:104EC0001C0319460C48FCF72BFA0023BB60094B66
:104ED0001B6C084A43F400031364064B1B6C03F479
:104EE0000003BB60BB6800BF3037BD4680BD00BF5C
:104EF000005400400038024000040240005C0040C2
:104F00000000024080B582B000AF78607868FBF79F
:104F1000BBFF03469AB24FF47A7379680348FEF7F1
:104F200014FE00BF0837BD4680BD00BFC804002086
:104F30002DE9F04FA1B012AFFCF72AF800F004F908
:104F4000FFF776FEFFF7E4FE00F072FDFFF70EFFBD
:104F50006D4A6E4B03CB1060516019889B781181AC
:104F600093726948FFF7CEFF00237B6319E07B6BE8
:104F700099B20A2301226648FDF704FB0346002B81
:104F80000CD120216348FCF776FB7A6B62495E48BE
:104F900001F044FE5C48FFF7B5FF05E07B6B013391
:104FA0007B637B6BFE2BE2DD00233B6319E03B6BF5
:104FB00099B20A2301225948FDF7E4FA0346002B6F
:104FC0000CD120215348FCF756FB3A6B54494E480C
:104FD00001F024FE4C48FFF795FF05E03B6B0133E1
:104FE0003B633B6BFE2BE2DD494800F023F94B4865
:104FF000FFF7D4FA4B4A4C494C4800F013FB4C4A9B
:105000004C494D4800F084FB4C494D4800F0C0FB32
:105010004FF4967200213C4801F09CF9434B1B6809
:105020001846FBF759FAC7E90A013F4B1B681846B7
:10503000FBF752FAC7E908013A4B1B681846FBF721
:105040004BFAC7E906013C4B1B681846FBF744FACC
:10505000C7E90401374B1B681846FBF73DFAC7E95F
:105060000201334B1B681846FBF736FAC7E900010B
:10507000334B1B681846FBF72FFA82468B462F4BA3
:105080001B681846FBF728FA804689462348FFF735
:1050900039FD10EE103A1846FBF71EFA05460E468B
:1050A0001E48FFF747FD10EE103A1846FBF714FABA
:1050B00003460C46CDE91034CDE90E56CDE90C89F6
:1050C000CDE90AAB97ED007B8DED087B97ED027B78
:1050D0008DED067B97ED047B8DED047B97ED067BD4
:1050E0008DED027B97ED087B8DED007BD7E90A23E0
:1050F0001449054801F092FD0348FFF703FF4FF400
:105100007A70FBF7B7FF75E7DC020020F883000830
:1051100084020020000002400484000830020020C5
:10512000248400080C040020B4040020180400208B
:10513000A004002008040020B0040020A8040020DF
:10514000AC0400203C84000880B594B000AF07F1A7
:105150001C0334220021184601F0FCF807F1080373
:1051600000221A605A609A60DA601A6100237B603C
:105170002A4B1B6C294A43F080531364274B1B6C4A
:1051800003F080537B607B6800233B60244B1B68EB
:1051900023F44043224A43F480431360204B1B68AE
:1051A00003F440433B603B680223FB610123BB6285
:1051B0001023FB6202237B630023BB631023FB638A
:1051C0004FF4A8733B6404237B640223BB64022373
:1051D000FB6407F11C031846FEF710FA0346002B88
:1051E00001D000F01FF80F23BB600223FB600023F7
:1051F0003B614FF480537B610023BB6107F10803DF
:1052000002211846FDF744FF0346002B01D000F0B1
:1052100009F800BF5037BD4680BD00BF00380240CE
:105220000070004080B400AF00BFBD465DF8047B55
:105230007047000080B582B000AF78600C4A7B6890
:105240001360012000F04EF8002000F081F80020EB
:1052500000F0B6F8042000F00DF8002000F0E8F8A7
:10526000002000F047F900BF0837BD4680BD00BFF1
:10527000C404002080B588B004AF0346FB71184B0E
:1052800018680A2302930123019307F10F03009387
:1052900001231A22D021FCF74FFFFB7B23F00703E9
:1052A000DBB2FB7397F9073003F007035AB2FB7BBD
:1052B0005BB213435BB2DBB2FB73094B18680A2382
:1052C00002930123019307F10F03009301231A2294
:1052D000D021FCF737FE00BF1037BD4680BD00BFB0
:1052E000C404002080B588B004AF0346FB71174B9F
:1052F00018680A2302930123019307F10F03009317
:1053000001236B22D021FCF717FFFB7B03F07F0307
:10531000DBB2FB73FB79DB015AB2FB7B5BB213435D
:105320005BB2DBB2FB73094B18680A2302930123BB
:10533000019307F10F03009301236B22D021FCF7A7
:1053400001FE00BF1037BD4680BD00BFC404002071
:1053500080B588B004AF0346FB71184B18680A2368
:1053600002930123019307F10F03009301236B22A2
:10537000D021FCF7E1FEFB7B23F04003DBB2FB73A3
:10538000FB799B015BB203F040035AB2FB7B5BB23B
:1053900013435BB2DBB2FB73084B18680A2302931A
:1053A0000123019307F10F03009301236B22D02106
:1053B000FCF7C8FD00BF1037BD4680BDC404002007
:1053C00080B588B004AF0346FB71184B18680A23F8
:1053D00002930123019307F10F03009301236B2232
:1053E000D021FCF7A9FEFB7B23F00703DBB2FB73A4
:1053F00097F9073003F007035AB2FB7B5BB2134304
:105400005BB2DBB2FB73094B18680A2302930123DA
:10541000019307F10F03009301236B22D021FCF7C6
:1054200091FD00BF1037BD4680BD00BFC404002001
:1054300080B588B004AF0346FB71284B18680A2377
:1054400002930123019307F10F03009301231B2211
:10545000D021FCF771FEFB7B23F01803DBB2FB735A
:10546000FB79DB005BB203F038035AB2FB7B5BB223
:1054700013435BB2DBB2FB73184B18680A23029329
:105480000123019307F10F03009301231B22D02175
:10549000FCF758FDFB79032B1AD801A252F823F030
:1054A000B1540008B9540008C1540008C954000898
:1054B0000B4B0C4A1A600CE0094B0B4A1A6008E0CF
:1054C000074B0A4A1A6004E0054B094A1A6000E0DB
:1054D00000BF00BF1037BD4680BD00BFC404002020
:1054E000C00400203F1EFA3B70227A3CDFBFF93C2B
:1054F000ECC0793D80B588B004AF0346FB71284B02
:1055000018680A2302930123019307F10F03009304
:1055100001231C22D021FCF70FFEFB7B23F0180394
:10552000DBB2FB73FB79DB005BB203F038035AB2EA
:10553000FB7B5BB213435BB2DBB2FB73184B1868A7
:105540000A2302930123019307F10F030093012320
:105550001C22D021FCF7F6FCFB79032B1AD801A200
:1055600052F823F0755500087D5500088555000850
:105570008D5500080B4B0C4A1A600CE0094B0B4A86
:105580001A6008E0074B0A4A1A6004E0054B094A12
:105590001A6000E000BF00BF1037BD4680BD00BFED
:1055A000C4040020BC04002040DA7F3840DAFF3811
:1055B00040DA7F3918F5FF3980B58AB004AFF8605A
:1055C000B9607A60164B18680A2302930623019388
:1055D00007F11003009301233B22D021FCF7ACFD1F
:1055E0003B7C1B021AB27B7C1BB213431AB2FB68D2
:1055F0001A80BB7C1B021AB2FB7C1BB213431AB28B
:10560000BB681A803B7D1B021AB27B7D1BB2134321
:105610001AB27B681A8000BF1837BD4680BD00BF34
:10562000C404002080B586B000AFF860B9607A602D
:1056300007F1120207F1140107F116031846FFF7EC
:10564000BBFFB7F9163007EE903AB8EEE77A144B85
:10565000D3ED007A67EE277AFB68C3ED007AB7F9DD
:10566000143007EE903AB8EEE77A0D4BD3ED007A9E
:1056700067EE277ABB68C3ED007AB7F9123007EE00
:10568000903AB8EEE77A064BD3ED007A67EE277AC8
:105690007B68C3ED007A00BF1837BD4680BD00BFF0
:1056A000BC04002080B58AB004AFF860B9607A60AD
:1056B000164B18680A2302930623019307F110037F
:1056C000009301234322D021FCF736FD3B7C1B02D3
:1056D0001AB27B7C1BB213431AB2FB681A80BB7CE4
:1056E0001B021AB2FB7C1BB213431AB2BB681A80AE
:1056F0003B7D1B021AB27B7D1BB213431AB27B683F
:105700001A8000BF1837BD4680BD00BFC40400200A
:1057100080B586B000AFF860B9607A6007F1120218
:1057200007F1140107F116031846FFF7BBFFB7F99D
:10573000163007EE903AB8EEE77A144BD3ED007AC4
:1057400067EE277AFB68C3ED007AB7F9143007EEED
:10575000903AB8EEE77A0D4BD3ED007A67EE277AF0
:10576000BB68C3ED007AB7F9123007EE903AB8EE95
:10577000E77A064BD3ED007A67EE277A7B68C3EDB4
:10578000007A00BF1837BD4680BD00BFC0040020AE
:105790002DE9B04386B000AF7860396007F10C02A4
:1057A00007F1100107F114031846FFF73BFF3B69AF
:1057B0001846FAF791FE80468946FB681846FAF7C4
:1057C0008BFE02460B4643EC112B49EC108B00F08C
:1057D000D3F951EC100B4FF00002334BFAF7D4FE23
:1057E00002460B46104619462DA3D3E90023FAF7CB
:1057F000F5FF02460B4610461946FBF775F90246BF
:105800007B681A607B691846FAF766FE804689460F
:1058100097ED047AD7ED047A27EE277AD7ED036A5D
:10582000D7ED037A66EEA77A77EE277A17EE900A1D
:10583000FAF752FE02460B4643EC102B00F09EF99D
:10584000B0EE407AF0EE607AB0EE471AF0EE671AEA
:1058500049EC108B00F090F951EC100B4FF0000266
:10586000114BFAF791FE02460B46144683F00045B1
:105870000BA3D3E9002320462946FAF7AFFF0346DE
:105880000C4618462146FBF72FF902463B681A6082
:1058900000BF1837BD46BDE8B08300BFAFF300803E
:1058A000182D4454FB2109400080664080B483B029
:1058B00000AF00237B60104B5B6C0F4A43F48043C6
:1058C00053640D4B5B6C03F480437B607B68002367
:1058D0003B60094B1B6C084A43F080531364064B32
:1058E0001B6C03F080533B603B6800BF0C37BD4628
:1058F0005DF8047B704700BF0038024080B400AF01
:1059000000BFBD465DF8047B704780B400AFFEE782
:1059100080B400AFFEE780B400AFFEE780B400AF14
:10592000FEE780B400AF00BFBD465DF8047B704762
:1059300080B400AF00BFBD465DF8047B704780B403
:1059400000AF00BFBD465DF8047B704780B500AF77
:10595000FBF770FB00BF80BD80B500AF0248FEF7CB
:105960008DF900BF80BD00BFC804002080B584B0A1
:1059700000AF7860114B1B68002B02D10F4B104A0F
:105980001A600E4B1B68FB600C4B1A687B68134453
:105990006A46934207D900F0B3FC02460C23136019
:1059A0004FF0FF3306E0054B1A687B681344034A47
:1059B0001360FB6818461037BD4680BD20020020EA
:1059C0001005002080B400AF164BD3F88830154A7C
:1059D00043F47003C2F88830134B1B68124A43F03B
:1059E00001031360104B00229A600F4B1B680E4A94
:1059F00023F0847323F4803313600B4B0B4A5A60FB
:105A0000094B1B68084A23F480231360064B0022CD
:105A1000DA60044B4FF000629A6000BFBD465DF84B
:105A2000047B704700ED00E0003802401030002495
:105A300080B500AF114B124A1A60104B4FF416524A
:105A40005A600E4B00229A600C4B0022DA600B4B1E
:105A500000221A61094B0C225A61084B00229A61FC
:105A6000064B0022DA610548FEF722F80346002BB8
:105A700001D0FFF7D7FB00BF80BD00BFC8040020E6
:105A80000044004080B58AB000AF786007F114038D
:105A900000221A605A609A60DA601A617B681B689B
:105AA0001D4A934233D100233B611C4B1B6C1B4AA4
:105AB00043F400331364194B1B6C03F400333B6154
:105AC0003B690023FB60154B1B6B144A43F0010339
:105AD0001363124B1B6B03F00103FB60FB680C2389
